{
  "_format": "hh-sol-artifact-1",
  "contractName": "WeRjapanese01",
  "sourceName": "contracts/WeRjapanese01.sol",
  "abi": [
    {
      "inputs": [
        {
          "internalType": "string",
          "name": "_initBaseURI",
          "type": "string"
        }
      ],
      "stateMutability": "nonpayable",
      "type": "constructor"
    },
    {
      "inputs": [],
      "name": "ApprovalCallerNotOwnerNorApproved",
      "type": "error"
    },
    {
      "inputs": [],
      "name": "ApprovalQueryForNonexistentToken",
      "type": "error"
    },
    {
      "inputs": [],
      "name": "ApproveToCaller",
      "type": "error"
    },
    {
      "inputs": [],
      "name": "BalanceQueryForZeroAddress",
      "type": "error"
    },
    {
      "inputs": [],
      "name": "MintERC2309QuantityExceedsLimit",
      "type": "error"
    },
    {
      "inputs": [],
      "name": "MintToZeroAddress",
      "type": "error"
    },
    {
      "inputs": [],
      "name": "MintZeroQuantity",
      "type": "error"
    },
    {
      "inputs": [],
      "name": "OwnerQueryForNonexistentToken",
      "type": "error"
    },
    {
      "inputs": [],
      "name": "OwnershipNotInitializedForExtraData",
      "type": "error"
    },
    {
      "inputs": [],
      "name": "TransferCallerNotOwnerNorApproved",
      "type": "error"
    },
    {
      "inputs": [],
      "name": "TransferFromIncorrectOwner",
      "type": "error"
    },
    {
      "inputs": [],
      "name": "TransferToNonERC721ReceiverImplementer",
      "type": "error"
    },
    {
      "inputs": [],
      "name": "TransferToZeroAddress",
      "type": "error"
    },
    {
      "inputs": [],
      "name": "URIQueryForNonexistentToken",
      "type": "error"
    },
    {
      "anonymous": false,
      "inputs": [
        {
          "indexed": true,
          "internalType": "address",
          "name": "owner",
          "type": "address"
        },
        {
          "indexed": true,
          "internalType": "address",
          "name": "approved",
          "type": "address"
        },
        {
          "indexed": true,
          "internalType": "uint256",
          "name": "tokenId",
          "type": "uint256"
        }
      ],
      "name": "Approval",
      "type": "event"
    },
    {
      "anonymous": false,
      "inputs": [
        {
          "indexed": true,
          "internalType": "address",
          "name": "owner",
          "type": "address"
        },
        {
          "indexed": true,
          "internalType": "address",
          "name": "operator",
          "type": "address"
        },
        {
          "indexed": false,
          "internalType": "bool",
          "name": "approved",
          "type": "bool"
        }
      ],
      "name": "ApprovalForAll",
      "type": "event"
    },
    {
      "anonymous": false,
      "inputs": [
        {
          "indexed": true,
          "internalType": "uint256",
          "name": "fromTokenId",
          "type": "uint256"
        },
        {
          "indexed": false,
          "internalType": "uint256",
          "name": "toTokenId",
          "type": "uint256"
        },
        {
          "indexed": true,
          "internalType": "address",
          "name": "from",
          "type": "address"
        },
        {
          "indexed": true,
          "internalType": "address",
          "name": "to",
          "type": "address"
        }
      ],
      "name": "ConsecutiveTransfer",
      "type": "event"
    },
    {
      "anonymous": false,
      "inputs": [
        {
          "indexed": true,
          "internalType": "address",
          "name": "previousOwner",
          "type": "address"
        },
        {
          "indexed": true,
          "internalType": "address",
          "name": "newOwner",
          "type": "address"
        }
      ],
      "name": "OwnershipTransferred",
      "type": "event"
    },
    {
      "anonymous": false,
      "inputs": [
        {
          "indexed": true,
          "internalType": "address",
          "name": "from",
          "type": "address"
        },
        {
          "indexed": true,
          "internalType": "address",
          "name": "to",
          "type": "address"
        },
        {
          "indexed": true,
          "internalType": "uint256",
          "name": "tokenId",
          "type": "uint256"
        }
      ],
      "name": "Transfer",
      "type": "event"
    },
    {
      "inputs": [],
      "name": "MaxperWallet",
      "outputs": [
        {
          "internalType": "uint256",
          "name": "",
          "type": "uint256"
        }
      ],
      "stateMutability": "view",
      "type": "function"
    },
    {
      "inputs": [],
      "name": "MaxperWalletWl",
      "outputs": [
        {
          "internalType": "uint256",
          "name": "",
          "type": "uint256"
        }
      ],
      "stateMutability": "view",
      "type": "function"
    },
    {
      "inputs": [],
      "name": "WlSupply",
      "outputs": [
        {
          "internalType": "uint256",
          "name": "",
          "type": "uint256"
        }
      ],
      "stateMutability": "view",
      "type": "function"
    },
    {
      "inputs": [
        {
          "internalType": "address",
          "name": "to",
          "type": "address"
        },
        {
          "internalType": "uint256",
          "name": "tokenId",
          "type": "uint256"
        }
      ],
      "name": "approve",
      "outputs": [],
      "stateMutability": "nonpayable",
      "type": "function"
    },
    {
      "inputs": [
        {
          "internalType": "address",
          "name": "owner",
          "type": "address"
        }
      ],
      "name": "balanceOf",
      "outputs": [
        {
          "internalType": "uint256",
          "name": "",
          "type": "uint256"
        }
      ],
      "stateMutability": "view",
      "type": "function"
    },
    {
      "inputs": [],
      "name": "baseExtension",
      "outputs": [
        {
          "internalType": "string",
          "name": "",
          "type": "string"
        }
      ],
      "stateMutability": "view",
      "type": "function"
    },
    {
      "inputs": [],
      "name": "baseURI",
      "outputs": [
        {
          "internalType": "string",
          "name": "",
          "type": "string"
        }
      ],
      "stateMutability": "view",
      "type": "function"
    },
    {
      "inputs": [],
      "name": "cost",
      "outputs": [
        {
          "internalType": "uint256",
          "name": "",
          "type": "uint256"
        }
      ],
      "stateMutability": "view",
      "type": "function"
    },
    {
      "inputs": [
        {
          "internalType": "uint256",
          "name": "tokenId",
          "type": "uint256"
        }
      ],
      "name": "getApproved",
      "outputs": [
        {
          "internalType": "address",
          "name": "",
          "type": "address"
        }
      ],
      "stateMutability": "view",
      "type": "function"
    },
    {
      "inputs": [
        {
          "internalType": "uint256",
          "name": "_mintAmount",
          "type": "uint256"
        },
        {
          "internalType": "address",
          "name": "destination",
          "type": "address"
        }
      ],
      "name": "gift",
      "outputs": [],
      "stateMutability": "nonpayable",
      "type": "function"
    },
    {
      "inputs": [
        {
          "internalType": "address",
          "name": "owner",
          "type": "address"
        },
        {
          "internalType": "address",
          "name": "operator",
          "type": "address"
        }
      ],
      "name": "isApprovedForAll",
      "outputs": [
        {
          "internalType": "bool",
          "name": "",
          "type": "bool"
        }
      ],
      "stateMutability": "view",
      "type": "function"
    },
    {
      "inputs": [],
      "name": "maxSupply",
      "outputs": [
        {
          "internalType": "uint256",
          "name": "",
          "type": "uint256"
        }
      ],
      "stateMutability": "view",
      "type": "function"
    },
    {
      "inputs": [],
      "name": "merkleRoot",
      "outputs": [
        {
          "internalType": "bytes32",
          "name": "",
          "type": "bytes32"
        }
      ],
      "stateMutability": "view",
      "type": "function"
    },
    {
      "inputs": [],
      "name": "name",
      "outputs": [
        {
          "internalType": "string",
          "name": "",
          "type": "string"
        }
      ],
      "stateMutability": "view",
      "type": "function"
    },
    {
      "inputs": [],
      "name": "notRevealedUri",
      "outputs": [
        {
          "internalType": "string",
          "name": "",
          "type": "string"
        }
      ],
      "stateMutability": "view",
      "type": "function"
    },
    {
      "inputs": [
        {
          "internalType": "address",
          "name": "owner",
          "type": "address"
        }
      ],
      "name": "numberMinted",
      "outputs": [
        {
          "internalType": "uint256",
          "name": "",
          "type": "uint256"
        }
      ],
      "stateMutability": "view",
      "type": "function"
    },
    {
      "inputs": [],
      "name": "owner",
      "outputs": [
        {
          "internalType": "address",
          "name": "",
          "type": "address"
        }
      ],
      "stateMutability": "view",
      "type": "function"
    },
    {
      "inputs": [
        {
          "internalType": "uint256",
          "name": "tokenId",
          "type": "uint256"
        }
      ],
      "name": "ownerOf",
      "outputs": [
        {
          "internalType": "address",
          "name": "",
          "type": "address"
        }
      ],
      "stateMutability": "view",
      "type": "function"
    },
    {
      "inputs": [
        {
          "internalType": "bool",
          "name": "_state",
          "type": "bool"
        }
      ],
      "name": "pause",
      "outputs": [],
      "stateMutability": "nonpayable",
      "type": "function"
    },
    {
      "inputs": [],
      "name": "paused",
      "outputs": [
        {
          "internalType": "bool",
          "name": "",
          "type": "bool"
        }
      ],
      "stateMutability": "view",
      "type": "function"
    },
    {
      "inputs": [],
      "name": "preSale",
      "outputs": [
        {
          "internalType": "bool",
          "name": "",
          "type": "bool"
        }
      ],
      "stateMutability": "view",
      "type": "function"
    },
    {
      "inputs": [
        {
          "internalType": "uint256",
          "name": "tokens",
          "type": "uint256"
        },
        {
          "internalType": "bytes32[]",
          "name": "merkleProof",
          "type": "bytes32[]"
        }
      ],
      "name": "presaleMint",
      "outputs": [],
      "stateMutability": "payable",
      "type": "function"
    },
    {
      "inputs": [],
      "name": "publicSale",
      "outputs": [
        {
          "internalType": "bool",
          "name": "",
          "type": "bool"
        }
      ],
      "stateMutability": "view",
      "type": "function"
    },
    {
      "inputs": [
        {
          "internalType": "uint256",
          "name": "tokens",
          "type": "uint256"
        }
      ],
      "name": "publicSaleMint",
      "outputs": [],
      "stateMutability": "payable",
      "type": "function"
    },
    {
      "inputs": [],
      "name": "renounceOwnership",
      "outputs": [],
      "stateMutability": "nonpayable",
      "type": "function"
    },
    {
      "inputs": [
        {
          "internalType": "bool",
          "name": "_state",
          "type": "bool"
        }
      ],
      "name": "reveal",
      "outputs": [],
      "stateMutability": "nonpayable",
      "type": "function"
    },
    {
      "inputs": [],
      "name": "revealed",
      "outputs": [
        {
          "internalType": "bool",
          "name": "",
          "type": "bool"
        }
      ],
      "stateMutability": "view",
      "type": "function"
    },
    {
      "inputs": [
        {
          "internalType": "address",
          "name": "from",
          "type": "address"
        },
        {
          "internalType": "address",
          "name": "to",
          "type": "address"
        },
        {
          "internalType": "uint256",
          "name": "tokenId",
          "type": "uint256"
        }
      ],
      "name": "safeTransferFrom",
      "outputs": [],
      "stateMutability": "nonpayable",
      "type": "function"
    },
    {
      "inputs": [
        {
          "internalType": "address",
          "name": "from",
          "type": "address"
        },
        {
          "internalType": "address",
          "name": "to",
          "type": "address"
        },
        {
          "internalType": "uint256",
          "name": "tokenId",
          "type": "uint256"
        },
        {
          "internalType": "bytes",
          "name": "_data",
          "type": "bytes"
        }
      ],
      "name": "safeTransferFrom",
      "outputs": [],
      "stateMutability": "nonpayable",
      "type": "function"
    },
    {
      "inputs": [
        {
          "internalType": "address",
          "name": "operator",
          "type": "address"
        },
        {
          "internalType": "bool",
          "name": "approved",
          "type": "bool"
        }
      ],
      "name": "setApprovalForAll",
      "outputs": [],
      "stateMutability": "nonpayable",
      "type": "function"
    },
    {
      "inputs": [
        {
          "internalType": "string",
          "name": "_newBaseExtension",
          "type": "string"
        }
      ],
      "name": "setBaseExtension",
      "outputs": [],
      "stateMutability": "nonpayable",
      "type": "function"
    },
    {
      "inputs": [
        {
          "internalType": "string",
          "name": "_newBaseURI",
          "type": "string"
        }
      ],
      "name": "setBaseURI",
      "outputs": [],
      "stateMutability": "nonpayable",
      "type": "function"
    },
    {
      "inputs": [
        {
          "internalType": "uint256",
          "name": "_newCost",
          "type": "uint256"
        }
      ],
      "name": "setCost",
      "outputs": [],
      "stateMutability": "nonpayable",
      "type": "function"
    },
    {
      "inputs": [
        {
          "internalType": "uint256",
          "name": "_limit",
          "type": "uint256"
        }
      ],
      "name": "setMaxPerWallet",
      "outputs": [],
      "stateMutability": "nonpayable",
      "type": "function"
    },
    {
      "inputs": [
        {
          "internalType": "uint256",
          "name": "_newsupply",
          "type": "uint256"
        }
      ],
      "name": "setMaxsupply",
      "outputs": [],
      "stateMutability": "nonpayable",
      "type": "function"
    },
    {
      "inputs": [
        {
          "internalType": "bytes32",
          "name": "_merkleRoot",
          "type": "bytes32"
        }
      ],
      "name": "setMerkleRoot",
      "outputs": [],
      "stateMutability": "nonpayable",
      "type": "function"
    },
    {
      "inputs": [
        {
          "internalType": "string",
          "name": "_notRevealedURI",
          "type": "string"
        }
      ],
      "name": "setNotRevealedURI",
      "outputs": [],
      "stateMutability": "nonpayable",
      "type": "function"
    },
    {
      "inputs": [
        {
          "internalType": "uint256",
          "name": "_newWlCost",
          "type": "uint256"
        }
      ],
      "name": "setWlCost",
      "outputs": [],
      "stateMutability": "nonpayable",
      "type": "function"
    },
    {
      "inputs": [
        {
          "internalType": "uint256",
          "name": "_limit",
          "type": "uint256"
        }
      ],
      "name": "setWlMaxPerWallet",
      "outputs": [],
      "stateMutability": "nonpayable",
      "type": "function"
    },
    {
      "inputs": [
        {
          "internalType": "uint256",
          "name": "_newsupply",
          "type": "uint256"
        }
      ],
      "name": "setwlsupply",
      "outputs": [],
      "stateMutability": "nonpayable",
      "type": "function"
    },
    {
      "inputs": [
        {
          "internalType": "bytes4",
          "name": "interfaceId",
          "type": "bytes4"
        }
      ],
      "name": "supportsInterface",
      "outputs": [
        {
          "internalType": "bool",
          "name": "",
          "type": "bool"
        }
      ],
      "stateMutability": "view",
      "type": "function"
    },
    {
      "inputs": [],
      "name": "symbol",
      "outputs": [
        {
          "internalType": "string",
          "name": "",
          "type": "string"
        }
      ],
      "stateMutability": "view",
      "type": "function"
    },
    {
      "inputs": [
        {
          "internalType": "bool",
          "name": "_state",
          "type": "bool"
        }
      ],
      "name": "togglepreSale",
      "outputs": [],
      "stateMutability": "nonpayable",
      "type": "function"
    },
    {
      "inputs": [
        {
          "internalType": "bool",
          "name": "_state",
          "type": "bool"
        }
      ],
      "name": "togglepublicSale",
      "outputs": [],
      "stateMutability": "nonpayable",
      "type": "function"
    },
    {
      "inputs": [
        {
          "internalType": "uint256",
          "name": "tokenId",
          "type": "uint256"
        }
      ],
      "name": "tokenURI",
      "outputs": [
        {
          "internalType": "string",
          "name": "",
          "type": "string"
        }
      ],
      "stateMutability": "view",
      "type": "function"
    },
    {
      "inputs": [],
      "name": "totalSupply",
      "outputs": [
        {
          "internalType": "uint256",
          "name": "",
          "type": "uint256"
        }
      ],
      "stateMutability": "view",
      "type": "function"
    },
    {
      "inputs": [
        {
          "internalType": "address",
          "name": "from",
          "type": "address"
        },
        {
          "internalType": "address",
          "name": "to",
          "type": "address"
        },
        {
          "internalType": "uint256",
          "name": "tokenId",
          "type": "uint256"
        }
      ],
      "name": "transferFrom",
      "outputs": [],
      "stateMutability": "nonpayable",
      "type": "function"
    },
    {
      "inputs": [
        {
          "internalType": "address",
          "name": "newOwner",
          "type": "address"
        }
      ],
      "name": "transferOwnership",
      "outputs": [],
      "stateMutability": "nonpayable",
      "type": "function"
    },
    {
      "inputs": [],
      "name": "withdraw",
      "outputs": [],
      "stateMutability": "payable",
      "type": "function"
    },
    {
      "inputs": [],
      "name": "wlcost",
      "outputs": [
        {
          "internalType": "uint256",
          "name": "",
          "type": "uint256"
        }
      ],
      "stateMutability": "view",
      "type": "function"
    }
  ],
  "bytecode": "0x60c06040526005608081905264173539b7b760d91b60a09081526200002891600b91906200022d565b506040518060800160405280605b8152602001620029c8605b913980516200005991600c916020909101906200022d565b50662386f26fc10000600d819055600e556014600f819055600a601055600360115560026012556013805463ffffffff19166201000017905560009055348015620000a357600080fd5b5060405162002a2338038062002a23833981016040819052620000c691620002e9565b604080518082018252600d81526c5765526a6170616e657365303160981b60208083019182528351808501909452600484526357524a3160e01b90840152815191929162000117916002916200022d565b5080516200012d9060039060208401906200022d565b5050600160005550620001403362000157565b60016009556200015081620001a9565b5062000402565b600880546001600160a01b038381166001600160a01b0319831681179093556040519116919082907f8be0079c531659141344cd1fd0a4f28419497f9722a3daafe3b4186f6b6457e090600090a35050565b620001b3620001cc565b8051620001c890600a9060208401906200022d565b5050565b6008546001600160a01b031633146200022b5760405162461bcd60e51b815260206004820181905260248201527f4f776e61626c653a2063616c6c6572206973206e6f7420746865206f776e6572604482015260640160405180910390fd5b565b8280546200023b90620003c5565b90600052602060002090601f0160209004810192826200025f5760008555620002aa565b82601f106200027a57805160ff1916838001178555620002aa565b82800160010185558215620002aa579182015b82811115620002aa5782518255916020019190600101906200028d565b50620002b8929150620002bc565b5090565b5b80821115620002b85760008155600101620002bd565b634e487b7160e01b600052604160045260246000fd5b60006020808385031215620002fd57600080fd5b82516001600160401b03808211156200031557600080fd5b818501915085601f8301126200032a57600080fd5b8151818111156200033f576200033f620002d3565b604051601f8201601f19908116603f011681019083821181831017156200036a576200036a620002d3565b8160405282815288868487010111156200038357600080fd5b600093505b82841015620003a7578484018601518185018701529285019262000388565b82841115620003b95760008684830101525b98975050505050505050565b600181811c90821680620003da57607f821691505b60208210811415620003fc57634e487b7160e01b600052602260045260246000fd5b50919050565b6125b680620004126000396000f3fe6080604052600436106102c85760003560e01c806370a0823111610175578063c6682862116100dc578063e3e1e8ef11610095578063f2c4ce1e1161006f578063f2c4ce1e1461083c578063f2fde38b1461085c578063f3257cdd1461087c578063fea0e0581461089c57600080fd5b8063e3e1e8ef146107c0578063e985e9c5146107d3578063f12f6d5d1461081c57600080fd5b8063c668286214610715578063c87b56dd1461072a578063d5abeb011461074a578063da3ef23f14610760578063dc33e68114610780578063e268e4d3146107a057600080fd5b806395d89b411161012e57806395d89b4114610677578063a22cb4651461068c578063b3ab66b0146106ac578063b88d4fde146106bf578063bd7a1998146106df578063bde0608a146106f557600080fd5b806370a08231146105c4578063715018a6146105e45780637cb64759146105f957806383a076be146106195780638da5cb5b14610639578063940cd05b1461065757600080fd5b80632eb4a7ab1161023457806351830227116101ed5780635c975abb116101c75780635c975abb1461055f5780636352211e146105795780636c0360eb146105995780636c2d3c4f146105ae57600080fd5b8063518302271461050057806355f804b31461051f5780635a7adf7f1461053f57600080fd5b80632eb4a7ab1461046157806333bc1c5c146104775780633ccfd60b1461049857806342842e0e146104a057806344a0d68a146104c0578063458c4f9e146104e057600080fd5b8063095ea7b311610286578063095ea7b3146103b75780630bddb613146103d757806313faede6146103ed578063149835a01461040357806318160ddd1461042357806323b872dd1461044157600080fd5b806277ec05146102cd57806301ffc9a7146102f657806302329a291461032657806306fdde0314610348578063081812fc1461036a578063081c8c44146103a2575b600080fd5b3480156102d957600080fd5b506102e360125481565b6040519081526020015b60405180910390f35b34801561030257600080fd5b50610316610311366004611f64565b6108bc565b60405190151581526020016102ed565b34801561033257600080fd5b50610346610341366004611f96565b61090e565b005b34801561035457600080fd5b5061035d610929565b6040516102ed9190612009565b34801561037657600080fd5b5061038a61038536600461201c565b6109bb565b6040516001600160a01b0390911681526020016102ed565b3480156103ae57600080fd5b5061035d6109ff565b3480156103c357600080fd5b506103466103d236600461204c565b610a8d565b3480156103e357600080fd5b506102e360105481565b3480156103f957600080fd5b506102e3600d5481565b34801561040f57600080fd5b5061034661041e36600461201c565b610b2d565b34801561042f57600080fd5b506102e3600154600054036000190190565b34801561044d57600080fd5b5061034661045c366004612076565b610b3a565b34801561046d57600080fd5b506102e360145481565b34801561048357600080fd5b50601354610316906301000000900460ff1681565b610346610ccb565b3480156104ac57600080fd5b506103466104bb366004612076565b610d61565b3480156104cc57600080fd5b506103466104db36600461201c565b610d81565b3480156104ec57600080fd5b506103466104fb36600461201c565b610d8e565b34801561050c57600080fd5b5060135461031690610100900460ff1681565b34801561052b57600080fd5b5061034661053a36600461213e565b610d9b565b34801561054b57600080fd5b506013546103169062010000900460ff1681565b34801561056b57600080fd5b506013546103169060ff1681565b34801561058557600080fd5b5061038a61059436600461201c565b610dba565b3480156105a557600080fd5b5061035d610dc5565b3480156105ba57600080fd5b506102e3600e5481565b3480156105d057600080fd5b506102e36105df366004612187565b610dd2565b3480156105f057600080fd5b50610346610e21565b34801561060557600080fd5b5061034661061436600461201c565b610e35565b34801561062557600080fd5b506103466106343660046121a2565b610e42565b34801561064557600080fd5b506008546001600160a01b031661038a565b34801561066357600080fd5b50610346610672366004611f96565b610f3d565b34801561068357600080fd5b5061035d610f5f565b34801561069857600080fd5b506103466106a73660046121ce565b610f6e565b6103466106ba36600461201c565b611004565b3480156106cb57600080fd5b506103466106da3660046121f8565b6112bc565b3480156106eb57600080fd5b506102e360115481565b34801561070157600080fd5b5061034661071036600461201c565b611306565b34801561072157600080fd5b5061035d611313565b34801561073657600080fd5b5061035d61074536600461201c565b611320565b34801561075657600080fd5b506102e3600f5481565b34801561076c57600080fd5b5061034661077b36600461213e565b611490565b34801561078c57600080fd5b506102e361079b366004612187565b6114ab565b3480156107ac57600080fd5b506103466107bb36600461201c565b6114b6565b6103466107ce366004612274565b6114c3565b3480156107df57600080fd5b506103166107ee3660046122f3565b6001600160a01b03918216600090815260076020908152604080832093909416825291909152205460ff1690565b34801561082857600080fd5b5061034661083736600461201c565b611845565b34801561084857600080fd5b5061034661085736600461213e565b611852565b34801561086857600080fd5b50610346610877366004612187565b61186d565b34801561088857600080fd5b50610346610897366004611f96565b6118e6565b3480156108a857600080fd5b506103466108b7366004611f96565b61190c565b60006301ffc9a760e01b6001600160e01b0319831614806108ed57506380ac58cd60e01b6001600160e01b03198316145b806109085750635b5e139f60e01b6001600160e01b03198316145b92915050565b610916611930565b6013805460ff1916911515919091179055565b6060600280546109389061231d565b80601f01602080910402602001604051908101604052809291908181526020018280546109649061231d565b80156109b15780601f10610986576101008083540402835291602001916109b1565b820191906000526020600020905b81548152906001019060200180831161099457829003601f168201915b5050505050905090565b60006109c68261198a565b6109e3576040516333d1c03960e21b815260040160405180910390fd5b506000908152600660205260409020546001600160a01b031690565b600c8054610a0c9061231d565b80601f0160208091040260200160405190810160405280929190818152602001828054610a389061231d565b8015610a855780601f10610a5a57610100808354040283529160200191610a85565b820191906000526020600020905b815481529060010190602001808311610a6857829003601f168201915b505050505081565b6000610a9882610dba565b9050336001600160a01b03821614610ad157610ab481336107ee565b610ad1576040516367d9dca160e11b815260040160405180910390fd5b60008281526006602052604080822080546001600160a01b0319166001600160a01b0387811691821790925591518593918516917f8c5be1e5ebec7d5bd14f71427d1e84f3dd0314c0f7b2291e5b200ac8c7c3b92591a4505050565b610b35611930565b600f55565b6000610b45826119bf565b9050836001600160a01b0316816001600160a01b031614610b785760405162a1148160e81b815260040160405180910390fd5b60008281526006602052604090208054338082146001600160a01b03881690911417610bc557610ba886336107ee565b610bc557604051632ce44b5f60e11b815260040160405180910390fd5b6001600160a01b038516610bec57604051633a954ecd60e21b815260040160405180910390fd5b8015610bf757600082555b6001600160a01b038681166000908152600560205260408082208054600019019055918716808252919020805460010190554260a01b17600160e11b17600085815260046020526040902055600160e11b8316610c825760018401600081815260046020526040902054610c80576000548114610c805760008181526004602052604090208490555b505b83856001600160a01b0316876001600160a01b03167fddf252ad1be2c89b69c2b068fc378daa952ba7f163c4a11628f55a4df523b3ef60405160405180910390a4505050505050565b610cd3611930565b60026009541415610cff5760405162461bcd60e51b8152600401610cf690612358565b60405180910390fd5b6002600955604051600090339047908381818185875af1925050503d8060008114610d46576040519150601f19603f3d011682016040523d82523d6000602084013e610d4b565b606091505b5050905080610d5957600080fd5b506001600955565b610d7c838383604051806020016040528060008152506112bc565b505050565b610d89611930565b600d55565b610d96611930565b601055565b610da3611930565b8051610db690600a906020840190611eb5565b5050565b6000610908826119bf565b600a8054610a0c9061231d565b60006001600160a01b038216610dfb576040516323d3ad8160e21b815260040160405180910390fd5b506001600160a01b031660009081526005602052604090205467ffffffffffffffff1690565b610e29611930565b610e336000611a28565b565b610e3d611930565b601455565b610e4a611930565b60026009541415610e6d5760405162461bcd60e51b8152600401610cf690612358565b600260095581610ebf5760405162461bcd60e51b815260206004820152601b60248201527f6e65656420746f206d696e74206174206c656173742031204e465400000000006044820152606401610cf6565b6000610ed2600154600054036000190190565b600f54909150610ee284836123a5565b1115610f295760405162461bcd60e51b81526020600482015260166024820152751b585e08139195081b1a5b5a5d08195e18d95959195960521b6044820152606401610cf6565b610f338284611a7a565b5050600160095550565b610f45611930565b601380549115156101000261ff0019909216919091179055565b6060600380546109389061231d565b6001600160a01b038216331415610f985760405163b06307db60e01b815260040160405180910390fd5b3360008181526007602090815260408083206001600160a01b03871680855290835292819020805460ff191686151590811790915590519081529192917f17307eab39ab6107e8899845ad3d59bd9653f200f220920489ca2b5937696c31910160405180910390a35050565b600260095414156110275760405162461bcd60e51b8152600401610cf690612358565b600260095560135460ff161561107f5760405162461bcd60e51b815260206004820152601c60248201527f57524a3a206f6f707320636f6e747261637420697320706175736564000000006044820152606401610cf6565b6013546301000000900460ff166110d85760405162461bcd60e51b815260206004820152601c60248201527f57524a3a2053616c65204861736e2774207374617274656420796574000000006044820152606401610cf6565b60006110eb600154600054036000190190565b90506000821161113d5760405162461bcd60e51b815260206004820181905260248201527f57524a3a206e65656420746f206d696e74206174206c656173742031204e46546044820152606401610cf6565b60115482111561119b5760405162461bcd60e51b8152602060048201526024808201527f57524a3a206d6178206d696e7420616d6f756e742070657220747820657863656044820152631959195960e21b6064820152608401610cf6565b600f546111a883836123a5565b11156111e85760405162461bcd60e51b815260206004820152600f60248201526e15d4928e8815d94814dbdb191bdd5d608a1b6044820152606401610cf6565b601154826111fa33611a94565b611a94565b61120491906123a5565b11156112525760405162461bcd60e51b815260206004820181905260248201527f57524a3a204d6178204e4654205065722057616c6c65742065786365656465646044820152606401610cf6565b81600d5461126091906123bd565b3410156112a95760405162461bcd60e51b815260206004820152601760248201527657524a3a20696e73756666696369656e742066756e647360481b6044820152606401610cf6565b6112b33383611a7a565b50506001600955565b6112c7848484610b3a565b6001600160a01b0383163b15611300576112e384848484611abd565b611300576040516368d2bf6b60e11b815260040160405180910390fd5b50505050565b61130e611930565b601255565b600b8054610a0c9061231d565b606061132b8261198a565b6113905760405162461bcd60e51b815260206004820152603060248201527f455243373231414d657461646174613a2055524920717565727920666f72206e60448201526f37b732bc34b9ba32b73a103a37b5b2b760811b6064820152608401610cf6565b601354610100900460ff1661143157600c80546113ac9061231d565b80601f01602080910402602001604051908101604052809291908181526020018280546113d89061231d565b80156114255780601f106113fa57610100808354040283529160200191611425565b820191906000526020600020905b81548152906001019060200180831161140857829003601f168201915b50505050509050919050565b600061143b611bb5565b9050600081511161145b5760405180602001604052806000815250611489565b8061146584611bc4565b600b604051602001611479939291906123dc565b6040516020818303038152906040525b9392505050565b611498611930565b8051610db690600b906020840190611eb5565b600061090882611a94565b6114be611930565b601155565b600260095414156114e65760405162461bcd60e51b8152600401610cf690612358565b600260095560135460ff161561153e5760405162461bcd60e51b815260206004820152601c60248201527f57524a3a206f6f707320636f6e747261637420697320706175736564000000006044820152606401610cf6565b60135462010000900460ff166115965760405162461bcd60e51b815260206004820152601f60248201527f57524a3a2050726573616c65204861736e2774207374617274656420796574006044820152606401610cf6565b61160b828280806020026020016040519081016040528093929190818152602001838360200280828437600092019190915250506014546040516bffffffffffffffffffffffff193360601b166020820152909250603401905060405160208183030381529060405280519060200120611cc2565b6116575760405162461bcd60e51b815260206004820152601c60248201527f57524a3a20596f7520617265206e6f742057686974656c6973746564000000006044820152606401610cf6565b600061166a600154600054036000190190565b90506012548461167a6111f53390565b61168491906123a5565b11156116d25760405162461bcd60e51b815260206004820181905260248201527f57524a3a204d6178204e4654205065722057616c6c65742065786365656465646044820152606401610cf6565b600084116117225760405162461bcd60e51b815260206004820181905260248201527f57524a3a206e65656420746f206d696e74206174206c656173742031204e46546044820152606401610cf6565b6012548411156117745760405162461bcd60e51b815260206004820152601d60248201527f57524a3a206d6178206d696e74207065722054782065786365656465640000006044820152606401610cf6565b60105461178185836123a5565b11156117d95760405162461bcd60e51b815260206004820152602160248201527f57524a3a2057686974656c697374204d6178537570706c7920657863656564656044820152601960fa1b6064820152608401610cf6565b83600e546117e791906123bd565b3410156118305760405162461bcd60e51b815260206004820152601760248201527657524a3a20696e73756666696369656e742066756e647360481b6044820152606401610cf6565b61183a3385611a7a565b505060016009555050565b61184d611930565b600e55565b61185a611930565b8051610db690600c906020840190611eb5565b611875611930565b6001600160a01b0381166118da5760405162461bcd60e51b815260206004820152602660248201527f4f776e61626c653a206e6577206f776e657220697320746865207a65726f206160448201526564647265737360d01b6064820152608401610cf6565b6118e381611a28565b50565b6118ee611930565b6013805491151563010000000263ff00000019909216919091179055565b611914611930565b60138054911515620100000262ff000019909216919091179055565b6008546001600160a01b03163314610e335760405162461bcd60e51b815260206004820181905260248201527f4f776e61626c653a2063616c6c6572206973206e6f7420746865206f776e65726044820152606401610cf6565b60008160011115801561199e575060005482105b8015610908575050600090815260046020526040902054600160e01b161590565b60008180600111611a0f57600054811015611a0f57600081815260046020526040902054600160e01b8116611a0d575b806114895750600019016000818152600460205260409020546119ef565b505b604051636f96cda160e11b815260040160405180910390fd5b600880546001600160a01b038381166001600160a01b0319831681179093556040519116919082907f8be0079c531659141344cd1fd0a4f28419497f9722a3daafe3b4186f6b6457e090600090a35050565b610db6828260405180602001604052806000815250611cd8565b6001600160a01b03166000908152600560205260409081902054901c67ffffffffffffffff1690565b604051630a85bd0160e11b81526000906001600160a01b0385169063150b7a0290611af29033908990889088906004016124a0565b602060405180830381600087803b158015611b0c57600080fd5b505af1925050508015611b3c575060408051601f3d908101601f19168201909252611b39918101906124dd565b60015b611b97573d808015611b6a576040519150601f19603f3d011682016040523d82523d6000602084013e611b6f565b606091505b508051611b8f576040516368d2bf6b60e11b815260040160405180910390fd5b805181602001fd5b6001600160e01b031916630a85bd0160e11b1490505b949350505050565b6060600a80546109389061231d565b606081611be85750506040805180820190915260018152600360fc1b602082015290565b8160005b8115611c125780611bfc816124fa565b9150611c0b9050600a8361252b565b9150611bec565b60008167ffffffffffffffff811115611c2d57611c2d6120b2565b6040519080825280601f01601f191660200182016040528015611c57576020820181803683370190505b5090505b8415611bad57611c6c60018361253f565b9150611c79600a86612556565b611c849060306123a5565b60f81b818381518110611c9957611c9961256a565b60200101906001600160f81b031916908160001a905350611cbb600a8661252b565b9450611c5b565b600082611ccf8584611d45565b14949350505050565b611ce28383611d92565b6001600160a01b0383163b15610d7c576000548281035b611d0c6000868380600101945086611abd565b611d29576040516368d2bf6b60e11b815260040160405180910390fd5b818110611cf9578160005414611d3e57600080fd5b5050505050565b600081815b8451811015611d8a57611d7682868381518110611d6957611d6961256a565b6020026020010151611e89565b915080611d82816124fa565b915050611d4a565b509392505050565b60005481611db35760405163b562e8dd60e01b815260040160405180910390fd5b6001600160a01b03831660008181526005602090815260408083208054680100000000000000018802019055848352600490915281206001851460e11b4260a01b178317905582840190839083907fddf252ad1be2c89b69c2b068fc378daa952ba7f163c4a11628f55a4df523b3ef8180a4600183015b818114611e6257808360007fddf252ad1be2c89b69c2b068fc378daa952ba7f163c4a11628f55a4df523b3ef600080a4600101611e2a565b5081611e8057604051622e076360e81b815260040160405180910390fd5b60005550505050565b6000818310611ea5576000828152602084905260409020611489565b5060009182526020526040902090565b828054611ec19061231d565b90600052602060002090601f016020900481019282611ee35760008555611f29565b82601f10611efc57805160ff1916838001178555611f29565b82800160010185558215611f29579182015b82811115611f29578251825591602001919060010190611f0e565b50611f35929150611f39565b5090565b5b80821115611f355760008155600101611f3a565b6001600160e01b0319811681146118e357600080fd5b600060208284031215611f7657600080fd5b813561148981611f4e565b80358015158114611f9157600080fd5b919050565b600060208284031215611fa857600080fd5b61148982611f81565b60005b83811015611fcc578181015183820152602001611fb4565b838111156113005750506000910152565b60008151808452611ff5816020860160208601611fb1565b601f01601f19169290920160200192915050565b6020815260006114896020830184611fdd565b60006020828403121561202e57600080fd5b5035919050565b80356001600160a01b0381168114611f9157600080fd5b6000806040838503121561205f57600080fd5b61206883612035565b946020939093013593505050565b60008060006060848603121561208b57600080fd5b61209484612035565b92506120a260208501612035565b9150604084013590509250925092565b634e487b7160e01b600052604160045260246000fd5b600067ffffffffffffffff808411156120e3576120e36120b2565b604051601f8501601f19908116603f0116810190828211818310171561210b5761210b6120b2565b8160405280935085815286868601111561212457600080fd5b858560208301376000602087830101525050509392505050565b60006020828403121561215057600080fd5b813567ffffffffffffffff81111561216757600080fd5b8201601f8101841361217857600080fd5b611bad848235602084016120c8565b60006020828403121561219957600080fd5b61148982612035565b600080604083850312156121b557600080fd5b823591506121c560208401612035565b90509250929050565b600080604083850312156121e157600080fd5b6121ea83612035565b91506121c560208401611f81565b6000806000806080858703121561220e57600080fd5b61221785612035565b935061222560208601612035565b925060408501359150606085013567ffffffffffffffff81111561224857600080fd5b8501601f8101871361225957600080fd5b612268878235602084016120c8565b91505092959194509250565b60008060006040848603121561228957600080fd5b83359250602084013567ffffffffffffffff808211156122a857600080fd5b818601915086601f8301126122bc57600080fd5b8135818111156122cb57600080fd5b8760208260051b85010111156122e057600080fd5b6020830194508093505050509250925092565b6000806040838503121561230657600080fd5b61230f83612035565b91506121c560208401612035565b600181811c9082168061233157607f821691505b6020821081141561235257634e487b7160e01b600052602260045260246000fd5b50919050565b6020808252601f908201527f5265656e7472616e637947756172643a207265656e7472616e742063616c6c00604082015260600190565b634e487b7160e01b600052601160045260246000fd5b600082198211156123b8576123b861238f565b500190565b60008160001904831182151516156123d7576123d761238f565b500290565b6000845160206123ef8285838a01611fb1565b8551918401916124028184848a01611fb1565b8554920191600090600181811c908083168061241f57607f831692505b85831081141561243d57634e487b7160e01b85526022600452602485fd5b80801561245157600181146124625761248f565b60ff1985168852838801955061248f565b60008b81526020902060005b858110156124875781548a82015290840190880161246e565b505083880195505b50939b9a5050505050505050505050565b6001600160a01b03858116825284166020820152604081018390526080606082018190526000906124d390830184611fdd565b9695505050505050565b6000602082840312156124ef57600080fd5b815161148981611f4e565b600060001982141561250e5761250e61238f565b5060010190565b634e487b7160e01b600052601260045260246000fd5b60008261253a5761253a612515565b500490565b6000828210156125515761255161238f565b500390565b60008261256557612565612515565b500690565b634e487b7160e01b600052603260045260246000fdfea26469706673582212200c1e0cba7a44239c7857188d54ab5af8e9dcddad771cb41b1c289fff7e78925b64736f6c63430008090033697066733a2f2f516d4e727076516d506b4b546a506e654b7768637551774470635873365063636534735573696b6a6376456555542f7765526a6170616e6573655f6e6f6e52657665616c65645f6d657461646174612e6a736f6e",
  "linkReferences": {},
  "deployedLinkReferences": {}
}